:100000000C94BB010C94CD010C94CD010C94F9011E
:100010000C9473110C94CD010C94CD010C94CD0172
:100020000C94CD010C94CD010C94CD010C940D1ABF
:100030000C94CD010C94CD010C94CD010C94CD0108
:100040000C948E190C94CD010C94F5260C94772702
:100050000C94CD010C94CD010C94CD010C94CD01E8
:100060000C94CD010C94CD010F30153018301B309D
:10007000203028303030CB30CB30CB303D304030AA
:1000800049305230CB30CB30CB30CB30CB30CB3093
:100090005E30683074307C307F30883091309730FB
:1000A000CB30CB30A030A930B430C8045B105B102B
:1000B000D204DD04E804F3045B10F7045B100505CB
:1000C0005B100F05190523055B105B105B103305F2
:1000D00040054D052B272D276627662766276627AF
:1000E000662766276627662766276627332735270C
:1000F000372739273B273D273F27412766274527B5
:10010000472749274B274D274F2766275127084A5E
:10011000D73B3BCE016E84BCBFFDC12F3D6C74311B
:100120009ABD56833DDA3D00C77F11BED9E4BB4C72
:100130003E916BAAAABE000000803F05A84CCDB23C
:10014000D44EB93836A9020C50B9918688083CA61D
:10015000AAAA2ABE000000803F000D0A4772626C06
:1001600020312E3168205B27242720666F7220689B
:10017000656C705D0D0A00244E005B4F50543A00D0
:100180005B5645523A312E31682E32303139303893
:1001900033303A005B544C4F3A005B4739323A00F7
:1001A0003330003238005B4700204700204D0020EC
:1001B000530020460020540033382E005B47433A5A
:1001C00047005B484C503A24242024232024472015
:1001D000244920244E2024783D76616C20244E78DA
:1001E0003D6C696E6520244A3D6C696E6520245320
:1001F0004C50202443202458202448207E202120B5
:100200003F206374726C2D785D0D0A00536C656538
:1002100070696E6700526573746F72696E672073E0
:1002200070696E646C6500526573746F72696E6795
:100230002064656661756C74730050676D20456E4F
:100240006400436865636B204C696D697473004397
:100250006865636B20446F6F720044697361626C00
:10026000656400456E61626C656400436175746924
:100270006F6E3A20556E6C6F636B6564002724487F
:10028000277C2724582720746F20756E6C6F636B52
:1002900000526573657420746F20636F6E74696EAD
:1002A0007565005B4D53473A006F6B0D0A00414C7A
:1002B00041524D3A007C413A007C4F763A007C57DF
:1002C000434F3A007C506E3A007C46533A007C42E1
:1002D000663A007C57506F733A007C4D506F733A0A
:1002E00000536C65657000446F6F723A0043686537
:1002F000636B00416C61726D00486F6D65004A6F01
:100300006700486F6C643A0052756E0049646C6512
:10031000000D0A005B5052423A006572726F723AE9
:100320000000007A4300007A4300007A430000FA9C
:10033000430000FA430000FA4300A00C4700A00C61
:100340004700A00C47000048C3000048C300004815
:10035000C30A000019010AD7233C6F12033B0000B7
:100360007A440000000000000000C8410000FA4389
:10037000FA000000803F11241FBECFEFD8E0DEBF9F
:10038000CDBF27E0A0E0B1E001C01D92A136B207C9
:10039000E1F70E94AB2B0C94733A0C940000EBE64F
:1003A000F0E08081897E8083E8E6F0E080818E7FC6
:1003B0008083089584B1897E84B985B1866185B9C9
:1003C0008091700183FF0BC080916B0086618093E8
:1003D0006B008091680081608093680008950C94A0
:1003E000CF01F999FECF92BD81BD81E08FBB80B571
:1003F00008951F920F920FB60F9211242F933F93DF
:100400004F935F936F937F938F939F93AF93BF931C
:10041000EF93FF9380911A01813049F080914E054E
:10042000811105C00E94232581E00E940C11FF91DB
:10043000EF91BF91AF919F918F917F916F915F915C
:100440004F913F912F910F900FBE0F901F901895D5
:1004500093B196718091700186FD02C086E1982764
:10046000992349F091FB882780F992FD8260907171
:1004700019F08460089580E0089561E071E088E9F2
:1004800091E00C9425119F92AF92BF92CF92DF9290
:10049000EF92FF920F931F93CF93DF935B018A013B
:1004A0007C01E40EF51EEC01912C6B01C81AD90AEF
:1004B000C6018C0F9D1FCE15DF0589F00E94F1014A
:1004C000911008C0292D990C330B232F221F2227AE
:1004D000221F01C021E0982E920E8993E9CFC50119
:1004E000800F911F0E94F10121E030E0981611F079
:1004F00020E030E0C901DF91CF911F910F91FF9073
:10050000EF90DF90CF90BF90AF909F900895F894B8
:10051000F999FECF92BD81BD81E08FBB80B5862762
:10052000482F082E000C550B262F30E024233523AE
:10053000232B39F06F3F19F060BD84E006C084E1E1
:1005400004C0882321F060BD84E28FBBF99A7894BF
:1005500008959F92AF92BF92CF92DF92EF92FF9257
:100560000F931F93CF93DF935C018A017B01E40E0D
:10057000F51EEB01912C6C01C61AD70ACE018C0D29
:100580009D1DCE15DF0589F0911008C0292D990C0D
:10059000330B232F221F2227221F01C021E0699144
:1005A000922E960E0E948702E9CF692DC501800F19
:1005B000911FDF91CF911F910F91FF90EF90DF90EE
:1005C000CF90BF90AF909F900C94870290911B01A9
:1005D000911107C086FF02C0439A01C04398109250
:1005E000250108952F923F924F925F926F927F92D2
:1005F0008F929F92AF92BF92CF92DF92EF92FF9233
:100600000F931F93CF93DF93CDB7DEB7CA54D109B1
:100610000FB6F894DEBF0FBECDBF8AE3E0ECF1E089
:10062000DF011D928A95E9F78BE0E0E8F1E0A1ECAB
:10063000B1E001900D928A95E1F780911107843223
:1006400011F00C947C1081E08093C1011092C201E2
:1006500083E08A8FB1E0BBA3212C312C1CA61BA602
:1006600010E01B8E1F8EEE24E394F12CEAE0AE2EF8
:10067000B12CF1E68F2EF3E09F2E8A8DE82FF0E06B
:10068000EF5EF84FD080DD2009F437C29FEB9D0D5F
:100690009A3110F00C944B108F5F8A8FBE016A5E06
:1006A0007F4FCE014A960E943929882311F40C9479
:1006B0004D104E885F88688C798CC301B2010E940E
:1006C000DE390E941C37062F70E080E090E00E9427
:1006D0004D379B01AC01C301B2010E94A33520E05C
:1006E00030E048EC52E40E94FB380E9468390E94D6
:1006F0001C37CB01E7E4DE1629F0FDE4DF1609F430
:10070000EAC035C1083209F4C6C020F5043168F4E6
:10071000013108F08AC0043009F452C008F464C002
:100720000A3009F445C00C945B100C3109F440C048
:1007300050F4063110F00C945B1025E1201B20933F
:10074000C30126E0ADC00E3199F1063209F44CC068
:100750000C945B100D3309F498C0A8F4053381F1B3
:1007600040F40B3209F47AC0013309F477C00C94D9
:100770005B100C3310F00C945B106AEC600F60930C
:10078000C70129E08DC00C3538F40A3508F053C094
:10079000003581F10C945B100C3551F00F3510F0E1
:1007A0000C945B102EE5201B2093C20125E078C03D
:1007B000009731F42F8D21110C944F1031E03F8FB1
:1007C0000093C001202F2D7F2C3119F00C3509F03A
:1007D00064C0009721F00A9711F00C945B10600F31
:1007E0006093C00120E061C04F8D41110C944F1007
:1007F000A2E0AF8F0093C101063209F050C08431EE
:10080000910559F08E31910541F08832910529F01A
:100810008233910511F00C945B10B5010E94103ADF
:1008200066576093C10121E040C06FEE600F609396
:10083000C50122E035C0892B31F466EA600F609370
:10084000C40123E032C06A30710511F00C945B10D2
:100850000A3511F40C945B1024E027C0BF8DB11150
:100860000C944F10013331F41092C60128E0E3E0FC
:10087000EF8F1BC00A9711F00C945B10F1E0F0931E
:10088000C60128E033E03F8F10C0892B11F00C9493
:100890005B102AE00AC027E003C020E001C021E08D
:1008A000892B19F087E10C948310C70102C0880FCF
:1008B000991F2A95E2F72BA53CA528233923232B42
:1008C00019F085E10C948310ABA5BCA5A82BB92B1E
:1008D000BCA7ABA7D2CE892B29F7063018F403307A
:1008E00058F016C0083010F40C945B100A30F0F089
:1008F0000E3159F00C945B10002319F0013011F106
:1009000004C0B3E0B093C8011DC00093C8011AC071
:10091000043021F0053031F080E101C080E28093A5
:10092000CA0102C01092CA018CE00DC0093031F03A
:100930008091C90180648093C90102C01092C901ED
:100940008DE001C08BE0F70102C0EE0FFF1F8A951A
:10095000E2F72BA53CA52E233F23232B09F0B1CF93
:100960002BA53CA52E2B3F2B3CA72BA786CE8D2D50
:10097000DD0C990BAA0BBB0BFC01E654F109E53128
:10098000F10510F00C945B10EB5AFF4F0C94463AB3
:100990004092CC015092CD016092CE017092CF0175
:1009A00080E087C04092D0015092D1016092D20184
:1009B0007092D301116081E07CC04092D4015092CA
:1009C000D5016092D6017092D701126082E071C0A9
:1009D0004092D8015092D9016092DA017092DB0105
:1009E000146083E066C00093DC0184E062C0C30150
:1009F000B2010E9415376093DD017093DE01809390
:100A0000DF019093E00185E054C04092E1015092F3
:100A1000E2016092E3017092E40186E04AC04092F4
:100A2000E5015092E6016092E7017092E80187E0EB
:100A300040C04092E9015092EA016092EB0170924D
:100A4000EC0188E036C020E030E04FE753E4C3011A
:100A5000B2010E94BB38181614F40C945110009384
:100A6000ED0189E026C04092EE015092EF016092C4
:100A7000F0017092F1013B8D31603B8F8AE019C02B
:100A80004092F2015092F3016092F4017092F501EC
:100A90004B8D42604B8F8BE00CC04092F601509220
:100AA000F7016092F8017092F9018B8D84608B8F51
:100AB0008CE06701082E02C0CC0CDD1C0A94E2F722
:100AC000960122213321232B11F00C945310D401D1
:100AD00002C0B595A7958A95E2F7A0FF0BC020E06C
:100AE00030E0A901C301B2010E94993687FF02C01C
:100AF0000C9455102C283D28C0CDBB8DBB2329F06C
:100B0000EF8DE11102C0F2E0FF8F25FE0FC0809152
:100B1000DD019091DE01A091DF01B091E00181380B
:100B20009649A849B10514F00C9457103BA1332302
:100B300029F020FC02C00C94611018C08091C20101
:100B4000813071F44F8D4230E1F58091C1018035E3
:100B5000C1F18823B1F120FC02C00C94611031C0B6
:100B60008091810181112DC020FE1BC08091C301A5
:100B7000813039F523E333E34BEC51E46091CC0150
:100B80007091CD018091CE019091CF010E94FB38F0
:100B90006093CC017093CD018093CE019093CF01EF
:100BA00010C080918F0190919001A0919101B0911E
:100BB00092018093CC019093CD01A093CE01B0938C
:100BC000CF0130FC10C080918B0190918C01A091DD
:100BD0008D01B0918E018093E9019093EA01A09379
:100BE000EB01B093EC018091C001843039F426FC14
:100BF00003C08CE10C948310E89426F88091C50121
:100C0000882369F0813029F48FAF1DAE92E09BAF4D
:100C10000BC01FAEA2E0ADAFB1E0BBAF05C0E2E0DC
:100C2000EFAFF1E0FDAF1BAE8091C301813021F049
:100C30002F8D2330C9F52FC060ECC62E61E0D62E73
:100C4000E12CF12C3B8DA32EB12CC5010E2C02C042
:100C5000959587950A94E2F780FF12C023E333E36A
:100C60004BEC51E4D6019E966D917D918D919C91B6
:100C7000D1970E94FB38F60166A777A780AB91ABAE
:100C8000FFEFEF1AFF0A24E0C20ED11C33E0E31697
:100C9000F104D9F6CDCF8091C601813029F44B8D76
:100CA000443011F00C9459108CE0E4EAF1E0DE01DC
:100CB000119601900D928A95E1F78BA59CA591FD67
:100CC00008C00091C0010A30C9F00C3509F4B3C066
:100CD0001EC18091C701873018F08DE10C948310FC
:100CE00090918601891769F3BE016F5F7F4F0E9463
:100CF0007726882311F40C946F10E3CF9B8D91110C
:100D000003C08AE10C948310C10180759927892B57
:100D100009F46FCF6091E1017091E2018091E301EC
:100D20009091E4010E94DE390E941C376730A8F6DA
:100D30008091DC01843141F0823011F00C945B1021
:100D400027FE02C00C945B10AFEA2A22662319F03A
:100D5000615069A703C0B091C701B9A760ED71E008
:100D600089A50E947726882311F40C946F100091B6
:100D7000DC014090BC015090BD016090BE017090BC
:100D8000BF0140ECE42E41E0F42E50E8A52E51E0E6
:100D9000B52EC12CD12CEB8D8E2E912CC4010C2C98
:100DA00002C0959587950A94E2F780FF35C004311B
:100DB00051F5D501D0962D913D914D915C91D397F0
:100DC00058966D917D918D919C915B970E94A33572
:100DD000F70126A537A540A951A90E94A335D7013F
:100DE00050966D937D938D939C935397B2E0CB1265
:100DF00013C0A30192010E94A335F701608B718B90
:100E0000828B938B09C0F70186A597A5A0A9B1A9EC
:100E1000808B918BA28BB38BFFEFCF1ADF0A24E07C
:100E2000E20EF11C34E0A30EB11C43E0C416D10461
:100E300009F0B4CF3FC18B8D882309F462CF409075
:100E4000BC015090BD016090BE017090BF0120E8D0
:100E5000822E21E0922EDE0111967D0130ECC32E10
:100E600031E0D32EA12CB12CE82FF0E0F8A7EFA3AE
:100E70008FA198A50A2C02C0959587950A94E2F750
:100E800080FF29C0D7012D913D914D915C91F401D6
:100E9000608D718D828D938D0E94A335D6019E96B3
:100EA0002D913D914D915C91D1970E94A335F60112
:100EB00066A777A780AB91ABF2E0AF1216C0A30193
:100EC00092010E94A335D6019E966D937D938D93DA
:100ED0009C93D1970AC0F40180A991A9A2A9B3A9B2
:100EE000F60186A797A7A0ABB1ABFFEFAF1ABF0A79
:100EF00024E0820E911C34E0E30EF11C44E0C40EA9
:100F0000D11C83E0A816B10409F0B2CFD2C09F8DE6
:100F1000933069F40E3109F494C0053309F4C3C069
:100F20000C3109F0C6C060ED71E086E08DC0AB8D7C
:100F3000AA2381F3B091C401BFA34090BC0150909B
:100F4000BD016090BE017090BF0180E8A82E81E0D5
:100F5000B82E90ECE92E91E0F92EFE0131964F016A
:100F6000C12CD12C2A2F30E03AA729A789A59AA510
:100F70000C2C02C0959587950A94E2F780FD0BC072
:100F8000F501808D918DA28DB38DF70186A797A76E
:100F9000A0ABB1AB44C0053309F441C0FFA1F111CE
:100FA0002BC0D501D0962D913D914D915C91D39759
:100FB000F40160817181828193810E94A435D701FF
:100FC0009E962D913D914D915C91D1970E94A435B3
:100FD000F70166A777A780AB91ABF2E0CF121FC0F5
:100FE000A30192010E94A435D7019E966D937D9333
:100FF0008D939C93D19713C0F501208D318D428D37
:10100000538DD7019E966D917D918D919C91D19735
:101010000E94A435F70166A777A780AB91ABFFEFDD
:10102000CF1ADF0A24E0A20EB11C34E0E30EF11C5B
:1010300044E0840E911C83E0C816D10409F096CFD9
:1010400069CF60ED71E087E00E947726882311F474
:101050000C946F109B8D911103C019A61F8E2AC08E
:10106000A0E8B1E0E0ECF1E080E090E04B8D242FCF
:1010700030E0A901082E02C0559547950A94E2F781
:1010800040FD0AC058964D915D916D917C915B97A2
:10109000408B518B628B738B019614963496833000
:1010A000910539F706C08091C101823010F00C948F
:1010B0005D1019A68091C1018FA3803529F49B8D05
:1010C00091110C945F107AC2AF8DA23009F076C2F4
:1010D000BFA1B11104C0EB8DE11170C22AC020E0A4
:1010E00030E0A9016091CC017091CD018091CE01D9
:1010F0009091CF010E949936882309F4E2C7FFA19D
:10110000FC3809F445C240F4F230A9F0F330B1F0F4
:10111000F13009F053C20AC02FA12E3809F438C2A9
:1011200008F433C22F3809F430C248C23B8D311164
:1011300045C21F8E43C24BA144604BA38B8D8823B5
:1011400009F4DFCDBBADAB2FB0E0B8ABAFA7FDADC1
:10115000EF2FF0E0FCABEBAB81E090E07C010BAC5F
:1011600002C0EE0CFF1C0A94E2F70DAC02C0880F1F
:10117000991F0A94E2F7E82AF92A2B8D822F90E032
:101180008E219F21892B09F49EC7FD01EE0FFF1FC1
:10119000EE0FFF1FE054FE4FAA0FBB1FAA0FBB1F8D
:1011A000A856BE4F2D913D914D915C9166A577A5B6
:1011B00080A991A90E94A3352B013C01EBA9FCA9B0
:1011C000EE0FFF1FEE0FFF1FE054FE4FABA9BCA9AF
:1011D000AA0FBB1FAA0FBB1FA856BE4F2D913D9152
:1011E0004D915C9166A577A580A991A90E94A33530
:1011F0004B015C01610130E8C322DD2427FEF5C00C
:10120000E89427F84CE050E06EEE71E088E991E058
:101210000E94663A892B11F481E275C78091C3015F
:101220008130B1F423E333E34BEC51E46091E50109
:101230007091E6018091E7019091E8010E94FB38EE
:101240006093E5017093E6018093E7019093E801D4
:101250008091E5019091E601A091E701B091E8014C
:101260008FAB98AFA9AFBAAFA3019201C301B2018E
:101270000E94FB3827966CAF7DAF8EAF9FAF27974C
:10128000A5019401C501B4010E94FB382B966CAFF7
:101290007DAF8EAF9FAF2B9720E030E040E850E469
:1012A0006FA978AD89AD9AAD0E94FB382FA938ADF2
:1012B00049AD5AAD0E94FB3827962CAD3DAD4EADE1
:1012C0005FAD27970E94A3352B962CAD3DAD4EAD5B
:1012D0005FAD2B970E94A3356B017C0120E030E0CD
:1012E000A9010E94993687FDF0C6C701B6010E9488
:1012F0009A396B017C012B962CAD3DAD4EAD5FADA7
:101300002B9727966CAD7DAD8EAD9FAD27970E9434
:10131000A4350E949A399B01AC01C701B6019058CF
:101320000E94A3366B017C019FA1933021F4F7FA50
:10133000F094F7F8F09420E030E0A9016FA978ADBF
:1013400089AD9AAD0E94993687FF11C0F7FAF094E3
:10135000F7F8F0948FA998ADA9ADBAADB0588093C5
:10136000E5019093E601A093E701B093E8010FA592
:1013700018A9000F111F000F111F00531E4FA701C6
:101380009601C501B4010E94FB389B01AC01C30169
:10139000B2010E94A33520E030E040E05FE30E940C
:1013A000FB38D8016D937D938D939C9313970BA974
:1013B0001CA9000F111F000F111F00531E4FA70182
:1013C0009601C301B2010E94FB38A50194010E945D
:1013D000A43520E030E040E05FE30E94FB38F801F4
:1013E0006083718382839383E9C0212F30E038AF1B
:1013F0002FABE222F322EF2809F469C631EF232252
:101400008091C301813009F47BC0EFA5F8A9EE0FEC
:10141000FF1FEE0FFF1FE053FE4FC080D180E28020
:10142000F380A7019601C301B2010E94A3352B01ED
:101430003C01EBA9FCA9EE0FFF1FEE0FFF1FE053CD
:10144000FE4F80819181A281B3818FA798ABA9AB18
:10145000BAAB9C01AD01C501B4010E94A3354B019B
:101460005C01A3019201C301B2010E94FB382B0170
:101470003C01A5019401C501B4010E94FB389B0108
:10148000AC01C301B2010E94A4350E949A394B01FC
:101490005C01A7019601C701B6010E94FB386B01F0
:1014A0007C012FA538A949A95AA9CA01B9010E94EE
:1014B000FB389B01AC01C701B6010E94A4350E9414
:1014C0009A396B017C016093E5017093E60180938A
:1014D000E7019093E8019B01AC01C501B4010E94B2
:1014E000A3354B015C01E894B7F82AE037ED43EAF5
:1014F0005BE3C501B4010E94BB3818164CF15EC015
:1015000000EC11E08FA998AD0C2C02C09595879541
:101510000A94E2F780FF12C023E333E34BEC51E47B
:10152000D80150966D917D918D919C9153970E9419
:10153000FB38F801608B718B828B938BFFEFCF1A96
:10154000DF0A0C5F1F4F23E0C216D104D9F65DCF2E
:1015500020E030E040E05FE3C501B4010E94BB3809
:1015600018160CF459CE2FE632E143E85AE3C701CE
:10157000B6010E94FB389B01AC01C501B4010E9479
:10158000BB3818160CF448CE19C03BA130613BA300
:101590008FA18E58823018F44BA148604BA38B8DDD
:1015A000882309F4AECB4CE050E06EEE71E088E9A0
:1015B00091E00E94663A892B09F42ECE2BA121706E
:1015C0009BA190FF03C0C1018E7D03C0C1018E7D30
:1015D0009C7FAF8DA111937E892B09F07AC58E0176
:1015E000035F1F4F89E0F80111928A95E9F72223E2
:1015F00009F44BC08BA59CA5867B892B09F06BC594
:101600008091C001853311F0811165C580918B01F6
:1016100090918C01A0918D01B0918E01898B9A8B54
:10162000AB8BBC8B9091890180918801892B409173
:10163000CC015091CD016091CE017091CF014D87C9
:101640005E876F87788B84608D8B8091700185FFBA
:1016500006C08EEE91E00E940F3181113EC5B801A7
:101660008EEE91E00E94163580911A01811139C5E4
:101670000E948623892B09F434C580E280931A01E5
:101680000E94AD110E94511C2CC580917001F090F8
:10169000890181FF26C08FA18150833018F0FBA102
:1016A000F064FBA32B8D222339F03F8D323021F4DF
:1016B0004BA140684BA315C080E1F81212C0809185
:1016C000800181509BA19074833030F4992349F0BC
:1016D0009BA190629BA305C0911103C0ABA1A06226
:1016E000ABA38091DD019091DE01A091DF01B0916B
:1016F000E0018093940190939501A0939601B0939B
:1017000097018091C20180938101882311F088E0C4
:101710008D8B8091CC019091CD01A091CE01B091A3
:10172000CF0180938F0190939001A0939101B0938A
:1017300092018D879E87AF87B88B8090E90190904A
:10174000EA01A090EB01B090EC01A5019401609139
:101750008B0170918C0180918D0190918E010E947E
:101760009936BBA1B074EB2E811103C0EBA1E5FF4C
:1017700020C0FF2071F0FBA1F7FD0BC0EE2021F08F
:1017800040E050E0BA0102C0B501A4018F2D0E94D3
:101790007B318091E9019091EA01A091EB01B09138
:1017A000EC0180938B0190938C01A0938D01B093F9
:1017B0008E01E1100CC080918B0190918C01A09161
:1017C0008D01B0918E01898B9A8BAB8BBC8B8091F4
:1017D000ED01809393018091CA019091890198173E
:1017E00051F049895A896B897C890E947B318091AB
:1017F000CA01809389019D8980918901892B8D8BF4
:10180000F090C901809188018F1569F080911A01CB
:10181000823029F00E9410228F2D0E94E6028091D2
:10182000C901809388019D8980918801892B8D8BC6
:101830008091C001843099F4C090E101D090E20120
:10184000E090E301F090E40180911A01823039F0D8
:101850000E94102240E0C701B6010E94F42480914A
:10186000C501809384018091C301809382012F8DF3
:10187000233071F58091C60180938501811108C0E4
:101880001092F6011092F7011092F8011092F901EE
:10189000C090F601D090F701E090F801F090F901C6
:1018A000A70196016091BC017091BD018091BE01BC
:1018B0009091BF010E949936882351F0C092BC01DB
:1018C000D092BD01E092BE01F092BF010E9476313C
:1018D0008091C70190918601981769F080938601E5
:1018E0008CE0FE013196A4EAB1E001900D928A9558
:1018F000E1F70E9476318091C40180938301809149
:10190000C0018632F1F138F48C3109F18E31F9F0F1
:101910008A3069F04FC08C35D1F1863609F441C068
:10192000883209F047C068E971E087E02DC060EDBA
:1019300071E089A50E9463268091860139A538133C
:1019400039C08CE0E0EDF1E0A4EAB1E025C08D897A
:1019500081608D8B4F8D442329F0B8018EEE91E08C
:101960000E941635B80180ED91E00E9416358CE09A
:10197000E0EDF1E0A8E9B1E001900D928A95E1F780
:1019800019C068E971E086E00E94632613C08CE00C
:10199000EEEEF1E0A0EBB1E001900D928A95E1F757
:1019A00007C08CE0E0EBF1E0DF011D928A95E9F7DA
:1019B0000E9476318091C10180938001803509F4C5
:1019C0001CC3BF8DB23009F018C3813021F4BE01B1
:1019D000635F7F4F06C0811109C08D8981608D8B47
:1019E000B8018EEE91E00E941635FEC28250823020
:1019F00008F093C28091E5019091E601A091E70182
:101A0000B091E8018F8F98A3A9A3BAA3ABAD94E0DE
:101A1000A99F70011124F701E856FE4FF8A7EFA324
:101A2000970120533E4F3AA729A7D9014D905D90C9
:101A30006D907C902081318142815381C301B2013C
:101A40000E94A4356BA77CA78DA79EA7EDADB4E03F
:101A5000EB9F80011124980128563E4F3CAF2BAFDD
:101A6000C80180539E4F9EAF8DAFDC018D909D903D
:101A7000AD90BC90F9012081318142815381C50133
:101A8000B4010E94A4356FA778AB89AB9AAB77FA03
:101A9000709477F87094D501C401B0588B8F9C8FE7
:101AA000AD8FBE8FF701E251FE4F2BA53CA54DA592
:101AB0005EA560817181828193810E94A3356B0153
:101AC0007C01F801E251FE4F2FA538A949A95AA976
:101AD00060817181828193810E94A3354B015C01F9
:101AE000A7019601C301B2010E94FB386BAB7CAB2E
:101AF0008DAB9EABA50194016B8D7C8D8D8D9E8DE4
:101B00000E94FB389B01AC016BA97CA98DA99EA901
:101B10000E94A4356BAB7CAB8DAB9EABA501940151
:101B2000C301B2010E94FB384B015C01A701960181
:101B30006B8D7C8D8D8D9E8D0E94FB389B01AC0141
:101B4000C501B4010E94A3352BA93CA94DA95EA9EA
:101B50000E9423366B017C019BA192FF13C02DEBE9
:101B600037E346E055EBC701B6010E94BB3887FD5D
:101B70001DC02BED3FE049EC50E4C701B6010E94C7
:101B8000A33512C02DEB37E346E055E3C701B6019C
:101B90000E949936181654F02BED3FE049EC50E4C2
:101BA000C701B6010E94A4356B017C0180906401DD
:101BB00090906501A0906601B09067012F8D38A1CB
:101BC00049A15AA1CA01B9010E94A435A5019401F5
:101BD0000E94A335A50194010E94FB380E949A3906
:101BE0004B015C0120E030E040E05FE3C701B6015B
:101BF0000E94FB382F8D38A149A15AA10E94FB38C1
:101C00009F77A50194010E94A3360E9488370E9405
:101C10001C377CAB6BABDB01AB2B09F4D8CE1D8939
:101C20004B01A12CB12C13FF12C0C501B4010E94BD
:101C30004B379B01AC016D857E858F8598890E940D
:101C4000FB386D877E878F87988B177F1D8BC5012B
:101C5000B4010E944B374B015C019B01AC01C701F1
:101C6000B6010E94A3366BA37CA38DA39EA3EFAD08
:101C7000B4E0EB9FC00111248C0108561E4FFC01FB
:101C8000E251FE4FD8012D913D914D915C916081C3
:101C90007181828193810E94A335A50194010E94E4
:101CA000A33627966CAF7DAF8EAF9FAF27972BA142
:101CB0003CA14DA15EA1CA01B9010E94FB389B0164
:101CC000AC0160E070E080E090E40E94A3356B011D
:101CD0007C012BEA3AEA4AE25EE36BA17CA18DA18A
:101CE0009EA10E94FB384B015C0120E030E040E8FF
:101CF00050E4C701B6010E94A4359B01AC01C501A7
:101D0000B4010E94FB386FAB78AF89AF9AAF20E087
:101D100030E040E05FE3C701B6010E94FB38239644
:101D20006CAF7DAF8EAF9FAF23971F8E222423947D
:101D3000312CEBA9FCA9E215F30509F448CEBF8DBF
:101D4000BC3008F044C02B8D3C8D4D8D5E8D2396AC
:101D50006CAD7DAD8EAD9FAD23970E94FB386B01BE
:101D60007C01A30192016FA978AD89AD9AAD0E9463
:101D7000FB38A70196010E94A4357B016C01A301E9
:101D8000920123966CAD7DAD8EAD9FAD23970E94E1
:101D9000FB384B015C012B8D3C8D4D8D5E8D6FA909
:101DA00078AD89AD9AAD0E94FB389B01AC01C501AD
:101DB000B4010E94A3352B013C01EF8DEF5FEF8F43
:101DC000470156018B8E9C8EAD8EBE8E65C0B101D3
:101DD00080E090E00E944B372BA13CA14DA15EA179
:101DE0000E94FB386B017C010E949E366B8F7C8FBA
:101DF0008D8F9E8FC701B6010E948C394B015C010B
:101E0000A9A5BAA5CD90DD90ED90FC90F7FAF094DD
:101E1000F7F8F094ADADBEAD8D919D910D90BC9154
:101E2000A02D8F8F98A3A9A3BAA3A70196016B8DAC
:101E30007C8D8D8D9E8D0E94FB382B013C012F8D5A
:101E400038A149A15AA1C501B4010E94FB389B01E8
:101E5000AC01C301B2010E94A4352B013C01A701D2
:101E60009601C501B4010E94FB386B017C012F8DE6
:101E700038A149A15AA16B8D7C8D8D8D9E8D0E94BC
:101E8000FB389B01AC01C701B6010E94A3356B8FE3
:101E90007C8F8D8F9E8F1F8EA30192016BA57CA5D9
:101EA0008DA59EA50E94A435EFA1F8A5608371833E
:101EB000828393832B8D3C8D4D8D5E8D6FA578A98C
:101EC00089A99AA90E94A435ABADBCAD6D937D9351
:101ED0008D939C93139727962CAD3DAD4EAD5FAD82
:101EE0002797F80160817181828193810E94A435D6
:101EF000D8016D937D938D939C931397BE01635F7F
:101F00007F4F88E991E00E94163580911B01811175
:101F10006BC0BFEF2B1A3B0A0CCF8D8984608D8B71
:101F200080911A01823009F45FC00E9410228091D2
:101F30001B01811162C0FBA1F071FF2E10921F01E5
:101F40002BA123FB882780F90E94991C86B18072FF
:101F500090910001891749F084E00E940C110E94C1
:101F6000FC2080E00E94991C48C0B8018EEE91E0F0
:101F70000E94163581E08093190182E00E941C11B5
:101F80000E94FC2080911B01811137C080911A01B1
:101F90008111F6CF80911901813081F4FF2051F039
:101FA0008CE0E1E0F1E0ADE0B1E001900D928A95C6
:101FB000E1F707C085E00E940C1103C081E0809327
:101FC0001F011092190180E00E94991C0E94FC20C0
:101FD0000E94DA190E9496230E9402230E947935FA
:101FE00080911F0181118CC08CE0EEEEF1E0A8E938
:101FF000B1E001900D928A95E1F78091C80180933C
:102000008701882309F47FC00E94102280918701F4
:1020100090911A01833041F49230D1F188E00E940E
:102020001C110E94FC2034C081E08093800110923A
:102030008401109283011092810110928601109206
:1020400089011092880184E6809321018093220106
:1020500080932301923091F064EA71E080E00E9465
:1020600077268823E1F10E94763140E050E0BA0102
:1020700080E00E94691C80E00E94E60283EA92E010
:102080000E94F3228AE392E00E94F3220E94342904
:10209000109287012FC081E036C082E034C088E111
:1020A00032C086E230C089E12EC084E02CC08BE1D2
:1020B0002AC085E228C084E126C08EE124C08FE1D9
:1020C00022C086E120C080E21EC082E21CC083E202
:1020D0001AC084E218C080E116C08FE014C087E007
:1020E00012C08CE0EEEEF1E0A8E9B1E001900D92B3
:1020F0008A95E1F780E007C01A8E1BA20C942C038E
:102100000E943D027ACFC65BDF4F0FB6F894DEBF68
:102110000FBECDBFDF91CF911F910F91FF90EF9038
:10212000DF90CF90BF90AF909F908F907F906F90F7
:102130005F904F903F902F900895CF93DF93C1E130
:10214000D7E08991882319F00E94A127FACFDF9167
:10215000CF910895CF93DF9321E5829FC001112491
:10216000EC01DD5F40E550E0BE0181E197E00E94B7
:102170004302892B69F4109211070E94102240E556
:1021800050E061E177E0CE010E94A90280E001C049
:1021900081E0DF91CF910895CF93DF93C0E08C2F42
:1021A0000E94AA1081110EC0109211078EE30E94A6
:1021B000A1270E949D108AE30E94A12787E00E9428
:1021C000DA2712C080911107882371F00E94F20271
:1021D000D82F8EE30E94A1270E949D108AE30E94BF
:1021E000A1278D2F0E94E627CF5FC230C1F6DF9175
:1021F000CF9108959FB7F89420915005822B80933A
:1022000050059FBF08959FB7F89420914F05822BEA
:1022100080934F059FBF08959FB7F89480934E0514
:102220009FBF08952FB7F89490914D05809589230D
:1022300080934D052FBF08959FB7F89420914D05C9
:10224000822B80934D059FBF08958F929F92AF92EE
:10225000BF92CF92DF92EF92FF920F931F93CF9393
:10226000DF93EB012BE2E22E21E0F22E8C016B01D9
:102270008CE0C80ED11C6991799189919991F701EF
:1022800081909190A190B1907F010E944D37A5015E
:1022900094010E94A336F801619371938193919305
:1022A0008F01CC15DD0539F7DF91CF911F910F918B
:1022B000FF90EF90DF90CF90BF90AF909F908F9066
:1022C000089596B19095892F877059F091FF02C0BB
:1022D00082E001C080E090FD816092FF03C08460D5
:1022E000089580E008951F920F920FB60F92112467
:1022F0002F933F934F935F936F937F938F939F930E
:10230000AF93BF93CF93EF93FF930E946111C82FB8
:10231000882389F080FD0E942325C2FF05C080919B
:102320004D05826080934D05C1FF05C080914D052C
:10233000886080934D05FF91EF91CF91BF91AF9150
:102340009F918F917F916F915F914F913F912F91CD
:102350000F900FBE0F901F9018952F923F924F92A3
:102360005F926F927F928F929F92AF92BF92CF9225
:10237000DF92EF92FF920F931F93CF93DF93CDB72E
:10238000DEB7EC970FB6F894DEBF0FBECDBF8091DD
:102390001E0180FD6BC79091770580917805981795
:1023A00009F464C78091000690910106892B09F019
:1023B00015C310911E0112FF09C080911C0522E374
:1023C000289FC001112484509E4F02C00E94862382
:1023D000909301068093000620900006309001063D
:1023E0002114310409F442C700911E05802F817029
:1023F00000FF03C010921E05EAC090911D059F5F6B
:10240000953009F0892F80931D05E82EF12C32E1DB
:102410003E9DF0013F9DF00D1124EA55FA4FF093D7
:10242000A505E093A405D10150969C915097908BFF
:10243000E2E18E9FC001112420E030E04D915D91DA
:102440006D917D91F901E80FF91FEA55FA4F6894F3
:1024500012F8440F551F661F771F1694D1F740835B
:102460005183628373832C5F3F4F2C30310531F7EA
:1024700022E12E9DF0012F9DF00D11249F012A5580
:102480003A4FF10184859585A685B78543E0880F8D
:10249000991FAA1FBB1F4A95D1F7F9018487958719
:1024A000A687B787D1011C966D917D918D919C91E6
:1024B0001F970E944B3760932305709324058093E8
:1024C000250590932605F101268D378D40A151A158
:1024D0000E94A3369B01AC016093270570932805E9
:1024E0008093290590932A0560E070E080EA9FE3DD
:1024F0000E94A33660932B0570932C0580932D05C5
:1025000090932E0510921F05109220051092210520
:102510001092220511FD02C003FF1FC060913C050F
:1025200070913D0580913E0590913F056093340583
:102530007093350580933605909337059B01AC0168
:102540000E94FB38D10152966D937D938D939C939D
:102550005597077F00931E050FC0F10162897389AB
:10256000848995890E949A39609334057093350562
:102570008093360590933705F2E1FE9DC001FF9DE3
:10258000900D11249C012A553A4F7901D901519699
:102590001C928091700181FF1AC0F101818985FF31
:1025A00016C022A533A544A555A560E070E080E8DB
:1025B0009FE30E94A336609348057093490580937A
:1025C0004A0590934B05E1E0D7015196EC931092A8
:1025D0003005109231051092320510923305D10169
:1025E0005A962D913D914D915C915D9729833A8347
:1025F0004B835C8360E070E080E09FE30E94A33641
:102600004B015C01F101468C578C60A071A011FF59
:102610004BC0F2E0F0932F05D1015296CD90DD90A2
:10262000ED90FC905597A70196010E94FB389B0105
:10263000AC01C301B2010E94A3354B015C0120E053
:1026400030E0A9010E94993687FF1DC029813A8197
:102650004B815C81CA01B9010E94A435A30192019A
:102660000E94FB389B01AC01C701B6010E94A33553
:102670000E949A3960933C0570933D0580933E0516
:1026800090933F05A8C18092300590923105A092A9
:102690003205B092330510923C0510923D05109220
:1026A0003E0510923F0597C110922F0540924005BC
:1026B00050924105609242057092430512FF0CC092
:1026C00010923C0510923D0510923E0510923F0578
:1026D000C12CD12C760124C0E091FB01EF5FE031E9
:1026E00009F4E0E080911C058E1759F0B2E3BE9F1B
:1026F000F0011124E450FE4FC288D388E488F588A5
:1027000003C0C12CD12C7601C701B6010E949A39B1
:1027100060933C0570933D0580933E0590933F0583
:10272000C1010E941323698B7A8B8B8B9C8B9B013D
:10273000AC010E94FB3869877A878B879C87D1011F
:1027400052962D913D914D915C9155972D833E83ED
:102750004F8358870E94993687FF6CC029853A8538
:102760004B855C856D817E818F8198850E94A33524
:10277000A50194010E94FB389B01AC01C301B20189
:102780000E94A335609340057093410580934205F4
:102790009093430520E030E0A9010E949936181675
:1027A0003CF1B2E0B0932F0529813A814B815C81E5
:1027B000CA01B9010E94A435A30192010E94FB380D
:1027C0009B01AC016D817E818F8198850E94A3352C
:1027D0000E949A3960933C0570933D0580933E05B5
:1027E00090933F0580911E05886080931E05F3C07D
:1027F000A701960169857A858B859C850E94A33502
:10280000A50194010E94FB3860934405709345052F
:10281000809346059093470529893A894B895C89BD
:10282000209338053093390540933A0550933B0582
:1028300033E0B6C0A70196016D817E818F819885B6
:102840000E94A335A50194010E94FB38A3019201C7
:102850000E94A43520E030E040E05FE30E94FB38B6
:102860006D877E878F87988B20E030E0A9010E94DA
:10287000BB3818160CF097C02D853E854F855889BA
:10288000C301B2010E94BB3818160CF088C0A70122
:10289000960169857A858B859C850E94A335A50163
:1028A00094010E94FB389B01AC0160934405709336
:1028B000450580934605909347056D857E858F85F8
:1028C00098890E94BB381816CCF589899A89AB89FA
:1028D000BC898093380590933905A0933A05B0934D
:1028E0003B052D813E814F81588569857A858B8591
:1028F0009C850E949936811104C091E090932F0528
:102900006AC02D813E814F81588569857A858B8586
:102910009C850E94A335A50194010E94FB389B0170
:10292000AC01C301B2010E94A335609340057093CE
:10293000410580934205909343054DC02D853E850A
:102940004F855889209340053093410540934205B7
:102950005093430520934405309345054093460525
:102960005093470529813A814B815C81CA01B901A5
:102970000E94A4352D853E854F8558890E94FB38DD
:10298000A70196010E94A4350E949A3960933805E8
:102990007093390580933A0590933B051CC032E053
:1029A00030932F0518C010924005109241051092E7
:1029B00042051092430580913C0590913D05A09100
:1029C0003E05B0913F058093380590933905A0935B
:1029D0003A05B0933B05186010931E018091A30542
:1029E000482F50E05A8B498B87E0849FF001859FE8
:1029F000F00D1124E758FA4F80911D058483A091B2
:102A00000006B0910106BCAFABAF5E96BC91BAA315
:102A1000EBADFCADF78DFBA3ABADBCAD9096BC911F
:102A2000BCA3EBADFCADF1A1FDA320912B05309132
:102A30002C0540912D0550912E056AA17BA18B2F6D
:102A40009F2F0E94A3356EA77FA788AB99AB20E08C
:102A500030E0A9010E94993687FF04C01EA61FA678
:102A600018AA19AA209138052E8B309139053F8B71
:102A700040913A05488F50913B05598F8091400510
:102A80008A8F909141059B8FA0914205AC8FB091A8
:102A90004305BD8FE0912F05ED8BF0914405FEA31A
:102AA000209145052FA33091460538A74091470551
:102AB00049A7509134055983809135058D839091B4
:102AC00036059987A0913705AD87B0913005BAA733
:102AD000E0913105EBA7F0913205FCA72091330579
:102AE0002DA730913C053BAB40913D054CAB50913F
:102AF0003E055DAB80913F058EAB2EA13FA148A561
:102B000059A56A8D7B8D8C8D9D8D0E949936811182
:102B100003C092E09AAB02C0A1E0AAAB3AA02BA0FE
:102B20000CA11DA18EE3C82E83ECD82E8EE2E82ED8
:102B300089E3F82E412C512C3201CE8EDF8EE8A293
:102B4000F9A23D89313009F4EDC0ABADBCAD3130F7
:102B500008F479C0333009F019C15A962D913D918E
:102B60004D915C915D97C701B6010E94FB384B0106
:102B70005C012E893F89488D598D69817D818985C8
:102B80009D850E94A3359B01AC01C501B4010E9443
:102B9000BB3887FD31C02A8D3B8D4C8D5D8D6AA180
:102BA0007BA18CA19DA10E94A3359B01AC010E9439
:102BB000A4356B017C0129813D8149855D856E8944
:102BC0007F89888D998D0E94A4359B01AC01C70136
:102BD000B6010E94A3366B017C01BE89B983EF89DF
:102BE000ED83F88DF987298D2D873A8C2B8C0C8DF0
:102BF0001D8D31E03D8B47C120E030E040E05FE3D8
:102C0000C501B4010E94FB389B01AC0169817D8143
:102C100089859D850E94A335A70196010E94FB38F6
:102C20009B01AC01632D722DC8010E94A335362E85
:102C3000272E8C01A501940169817D8189859D855F
:102C40000E94A3356AC05A962D913D914D915C9199
:102C50005D97C701B6010E94FB384B015C0120E083
:102C600030E040E05FE30E94FB3829813D814985E7
:102C70005D850E94A435A70196010E94FB389B0147
:102C8000AC01632D722DC8010E94A335362E272E6C
:102C90008C01262F372FAC016A8D7B8D8C8D9D8DFD
:102CA0000E94BB3818168CF52A8D3B8D4C8D5D8D9E
:102CB0006AA17BA18CA19DA10E94A3359B01AC01BF
:102CC0000E94A4356B017C0129813D8149855D8588
:102CD0006E897F89888D998D0E94A4359B01AC01F6
:102CE000C701B6010E94A3366B017C01BE89B9837E
:102CF000EF89ED83F88DF987298D2D873AA93D8BD2
:102D00003A8C2B8C0C8D1D8DBEC0A5019401698160
:102D10007D8189859D850E94A43569837D8389870E
:102D20009D87B1C02E893F89488D598DC701B60155
:102D30000E94FB389B01AC01632D722DC8010E94DB
:102D4000A3355B014C019B01AC016EA17FA188A55D
:102D500099A50E94BB3818160CF092C02EA13FA175
:102D600048A559A5632D722DC8010E94A3352E894F
:102D70003F89488D598D0E94A3366B017C013EA08E
:102D80002FA008A519A542E04D8B7DC05A962D9124
:102D90003D914D915C915D97C701B6010E94FB3852
:102DA0004B015C0129813D8149855D850E949936F1
:102DB00087FF38C020E030E040E05FE3C501B401A8
:102DC0000E94FB389B01AC0169817D8189859D85CD
:102DD0000E94A335A70196010E94FB389B01AC011C
:102DE000632D722DC8010E94A3356FAB78AF89AFF8
:102DF0009AAF2AA53BA54CA55DA50E94BB38181625
:102E00008CF4A501940169817D8189859D850E944D
:102E1000A33569837D8389879D873FA828AC09AD49
:102E20001AAD31C02AA53BA54CA55DA5632D722D19
:102E3000C8010E94A3359B01AC010E94A4356B011F
:102E40007C0129813D8149855D856BA97CA98DA97E
:102E50009EA90E94A4359B01AC01C701B6010E9446
:102E6000A3366B017C01BBA9B983ECA9ED83FDA955
:102E7000F9872EA92D873AA42BA40CA51DA503C064
:102E80003A2C2B2C8401A7019601C301B2010E94A8
:102E9000A4352B013C012E8D3F8D48A159A10E94E4
:102EA000993687FF07C0A30192016E8D7F8D88A19F
:102EB00099A11BC02EA53FA548A959A9632D722D24
:102EC000C8010E94BB3818161CF52EE333EC4EE205
:102ED00059E36E8D7F8D88A199A10E94A4356E8FD4
:102EE0007F8F88A399A3A30192010E94A3356B0150
:102EF0007C01232D322DA8016AA57BA58CA59DA55B
:102F00000E94993687FD1DCE3D8930932F0503C061
:102F10004D8940932F0589819D81A985BD85809329
:102F2000340590933505A0933605B0933705E091AD
:102F3000A405F091A5059189911104C080911E010D
:102F400083FF3FC0ABADBCAD51968C915197807360
:102F500049F19E96CD90DD90ED90FC90D19799230C
:102F6000D1F0209148053091490540914A05509192
:102F70004B0560913405709135058091360590912F
:102F800037050E94FB389B01AC01C701B6010E94C6
:102F9000FB386B017C01C701B6010E944425809378
:102FA0004C050AC0109227011092280110922901A5
:102FB00010922A0110924C0580911E01877F809308
:102FC0001E0147E029893A89429FF001439FF00D95
:102FD0001124E758FA4FFA87E98780914C058683D8
:102FE00020912705309128054091290550912A0507
:102FF000632D722DC8010E94FB3869837A838B830D
:103000009C830E9482366B017C0160912305709144
:10301000240580912505909126050E9482364B015A
:103020005C01A70196010E94A3350E941C376D83A5
:103030007E838F839887ED81FE81A985BA85ED9384
:10304000FC93EF2B41F480911E0181FF04C081604D
:1030500080931E010BC120911F05309120054091E6
:10306000210550912205C301B2010E94A4352B0114
:103070003C0129813A814B815C81C501B4010E94E8
:10308000A3359B01AC01C301B2010E94A3364B01E1
:103090005C0120EC31EE44E65EE40E94FB380E94C5
:1030A00082360E941C37603D37E073078105910529
:1030B00060F4A7E049895A89A49FF001A59FF00D0B
:1030C0001124E758FA4F158253C0603ABFE07B07DE
:1030D0008105910560F447E029893A89429FF00112
:1030E000439FF00D1124E758FA4F51E011C06034AE
:1030F000AFE17A078105910568F447E029893A89AB
:10310000429FF001439FF00D1124E758FA4F52E01F
:1031100055830CC027E0A989BA892A9FF0012B9F0B
:10312000F00D1124E758FA4F33E03583A7E04989C1
:103130005A89A49FF001A59FF00D1124E758FA4F7A
:103140002581022E04C096958795779567950A94F8
:10315000D2F74D815E8102C0440F551F2A95E2F7D8
:10316000518340836115710551E08507910568F42D
:1031700027E0A989BA892A9FF0012B9FF00D11241D
:10318000E758FA4F7383628304C04FEF5FEF5383B6
:103190004283809178058093A3058F5F863019F074
:1031A0008093780502C010927805E0910006F091B6
:1031B0000106832D922DD801868F978FA0A3B1A3EE
:1031C000C0922305D0922405E0922505F0922605B1
:1031D00029813A814B815C81C701B6010E94A335E8
:1031E000A50194010E94FB3860931F057093200590
:1031F000809321059093220520913005309131056F
:103200004091320550913305632D722DC8010E9403
:1032100099368111C0C820E030E0A901632D722DDC
:10322000C8010E94BB3890911E01181614F092FF3D
:1032300004C0916090931E0119C010920106109273
:1032400000069091FB0180911C05891709F4A3C821
:1032500081E0890F803109F480E02091FA01921316
:1032600002C08093FA018093FB0195C8EC960FB6DB
:10327000F894DEBF0FBECDBFDF91CF911F910F91AC
:10328000FF90EF90DF90CF90BF90AF909F908F9086
:103290007F906F905F904F903F902F900895CF93C5
:1032A000DF93C0910006D09101062097C9F080916C
:1032B0001E05816080931E0560913405709135056F
:1032C00080913605909137059B01AC010E94FB3837
:1032D0006A8B7B8B8C8B9D8B109201061092000663
:1032E000DF91CF91089580915C01682F20915D015D
:1032F000422F982F917080FD94E0822F817020FDE5
:1033000080E261FD986041FD806462FD906142FD54
:103310008068909351058093520508951F920F92F3
:103320000FB60F9211248F939F938BB190915105FB
:103330009C71837E892B8BB915BC9F918F910F90C7
:103340000FBE0F901F90189580916F008D7F809316
:103350006F0080918100887F81608093810010924E
:10336000530580915E0190911A018F3F39F42091AD
:103370004E05211103C0903881F402C0943069F0E9
:1033800090E0009741F0EFE9FFE03197F1F700C0DE
:1033900000000197F6CF81E001C080E090917001BC
:1033A00092FF02C091E08927882311F0289A08959E
:1033B00028980895CF93DF930E94A41980E3EDE14C
:1033C000F5E0DF011D928A95E9F7C4E5D5E083E2D7
:1033D000FE0111928A95E9F71092010610920006FB
:1033E000109277051092A30581E0809378051092E2
:1033F00053050E947319809152058F878BB1837E8C
:1034000090915105892B8BB98BB18F719091520599
:10341000892B8BB9DF91CF9108951F920F920FB630
:103420000F9211242F933F934F935F936F937F934A
:103430008F939F93AF93BF93EF93FF938091530527
:1034400081111EC28BB190916305907E8F71892B83
:103450008BB98BB1837E90916205892B8BB980915A
:10346000610586BD82E085BD81E080935305789437
:103470008091750590917605892B09F0BBC08091EC
:1034800077059091A305981709F4A4C0E0917705FA
:103490002E2F30E087E0E89FF0011124E758FA4F23
:1034A000F0937605E093750582819381909389006E
:1034B000809388008081918190937105809370053D
:1034C000E481809172058E1761F1E093720582E1CB
:1034D000E89FF0011124EA55FA4FF0937405E09348
:1034E000730584859585A685B785B695A795979527
:1034F000879580935C0590935D05A0935E05B093DE
:103500005F058093580590935905A0935A05B09391
:103510005B058093540590935505A0935605B09391
:103520005705A0917305B091740550969C915097E2
:103530008091520589278093630587E0829FF0017F
:10354000839FF00D1124E758FA4F25814D915D912D
:103550006D917C911397022E04C0769567955795CF
:1035600047950A94D2F7409364055093650560939C
:1035700066057093670514964D915D916D917C91F0
:103580001797022E04C076956795579547950A942C
:10359000D2F7409368055093690560936A0570936C
:1035A0006B0518968D919D910D90BC91A02D04C036
:1035B000B695A795979587952A95D2F780936C0530
:1035C00090936D05A0936E05B0936F0586810E9460
:1035D000172610C00E94A419E0917305F09174059C
:1035E0008189882319F080E00E94172684E00E94D8
:1035F0001C1146C1809119018130B1F486B18072ED
:1036000090910001891781F0109219018CE0E1E09E
:10361000F1E0ADE0B1E001900D928A95E1F7809183
:103620004D05806480934D051092620540915405CC
:10363000509155056091560570915705809164052C
:1036400090916505A0916605B0916705840F951F5F
:10365000A61FB71F8093540590935505A093560558
:10366000B0935705E0917305F09174054485558535
:1036700066857785481759076A077B0768F524E050
:10368000209362054485558566857785841B950B57
:10369000A60BB70B8093540590935505A093560540
:1036A000B093570520898091010190910201A0916A
:1036B0000301B091040125FF04C00197A109B109DC
:1036C00003C00196A11DB11D8093010190930201D9
:1036D000A0930301B09304014091580550915905FE
:1036E00060915A0570915B0580916805909169051C
:1036F000A0916A05B0916B05840F951FA61FB71F97
:103700008093580590935905A0935A05B0935B0593
:103710004485558566857785481759076A077B076D
:1037200078F52091620528602093620544855585CF
:1037300066857785841B950BA60BB70B8093580580
:1037400090935905A0935A05B0935B052089809109
:10375000050190910601A0910701B091080126FF93
:1037600004C00197A109B10903C00196A11DB11DB3
:103770008093050190930601A0930701B09308017F
:1037800040915C0550915D0560915E0570915F050B
:1037900080916C0590916D05A0916E05B0916F05BB
:1037A000840F951FA61FB71F80935C0590935D053E
:1037B000A0935E05B0935F05448555856685778542
:1037C000481759076A077B0778F520916205206141
:1037D000209362054485558566857785841B950B06
:1037E000A60BB70B80935C0590935D05A0935E05D7
:1037F000B0935F0520898091090190910A01A09101
:103800000B01B0910C0127FF04C00197A109B10978
:1038100003C00196A11DB11D8093090190930A0177
:10382000A0930B01B0930C0180911A01843039F4FC
:103830009091620580912001892380936205809197
:1038400070059091710501979093710580937005B3
:10385000892B69F410927605109275058091770591
:103860008F5F80937705863011F4109277059091E1
:103870006205809151058927809362051092530556
:10388000FF91EF91BF91AF919F918F917F916F9138
:103890005F914F913F912F910F900FBE0F901F900E
:1038A00018958091700182FF02C0289A01C0289863
:1038B000809151058093620580915B01880F84504F
:1038C00081958093610580916F00826080936F0085
:1038D000089590911B01911123C081110BC010928A
:1038E0002701109228011092290110922A010E94AA
:1038F000042614C0803111F42D9801C02D9A9091A6
:10390000700191FF05C0803219F440E050E0BA0127
:10391000CB01BA010E9444250E941726109225016E
:1039200008950E948623892B19F082E00C941C11C3
:103930000895109200019091700197FD03C090E2EC
:1039400090930001882331F09091000180E2892753
:103950008093000108952091700120FF08C02BE89A
:1039600032E441E25DE30E94FB3841E001C040E007
:103970000C9421223F924F925F926F927F928F928E
:103980009F92AF92BF92CF92DF92EF92FF920F93EE
:103990001F93CF93DF93CDB7DEB7A4970FB6F894FC
:1039A000DEBF0FBECDBF10914E05112391F181E016
:1039B00080931A018EEA92E00E94F322812F0E94E6
:1039C000CD220E94D62785EF91E0019739F0EFE9EB
:1039D000FFE03197F1F700C00000F7CF115012302F
:1039E00030F08FB7F89410924E058FBF12C083EA63
:1039F00092E00E94F32281E992E00E94F3220E9469
:103A0000342980E10E94121180914D0584FFFCCF82
:103A1000E8CF10914D05112309F4BBC214FF04C077
:103A200081E080931B01D0C310FFBFC18CE0E1E0B7
:103A3000F1E0DE01599601900D928A95E1F7BE0101
:103A4000675E7F4FCE010D960E9425118CE30E9488
:103A5000A12780911A018830E1F058F4813099F162
:103A6000A8F0823099F1843009F043C089EF92E0E8
:103A70003EC0803229F118F4803171F03AC08034B0
:103A800041F18038B1F581EE92E031C08CE093E0F5
:103A90002EC088E093E02BC080911C0187FD10C0F0
:103AA00082E093E00E94F32280911C0180FF06C017
:103AB00080E31AC082FF17C085FFFACF81E314C0EC
:103AC0008EEF92E014C083EF92E011C08DEE92E091
:103AD0000EC087EE92E00E94F32280911C0183FFCA
:103AE000E9CF83E301C082E30E94A12702C00E94C4
:103AF000F32280915F01F82FF170BF2E80FF07C085
:103B000080912601882319F08AED92E053C04090FD
:103B1000BC015090BD016090BE017090BF0154EA9D
:103B2000852E51E0952E9E012F5F3F4F7901CE01EA
:103B30000D966C0100E0F401619171918191919178
:103B40004F0120853185428553850E94A435F701B8
:103B50006083718382839383023061F4A3019201B5
:103B60000E94A435F7016083718382839383BB2015
:103B700019F0CACFB11011C0F70120813181428103
:103B80005381F60160817181828193810E94A33506
:103B9000F60160837183828393830F5FF4E0EF0EFD
:103BA000F11C24E0C20ED11C033029F6B110ACCFB9
:103BB00083ED92E00E94F322CE010D960E94BD2774
:103BC00080915F0181FF1FC08EEC92E00E94F32282
:103BD00090911C058091FB01981710F0815F01C046
:103BE0008150891B0E94CD228CE20E94A1278091E6
:103BF000A0069091A106981710F0805801C081503E
:103C0000891B0E94CD2289EC92E00E94F3228091D0
:103C10001A018C7749F060913405709135058091D7
:103C200036059091370503C060E070E0CB010E943B
:103C3000AB1C8CE20E94A1276091270170912801A2
:103C40008091290190912A0140E00E9421220E9446
:103C50002802F82E0E946111082F86B1982F9072C9
:103C600080910001E92EE8268F2D802B8E2959F1B5
:103C700084EC92E00E94F322EE2019F080E50E948D
:103C8000A127FF2079F0F0FE03C088E50E94A1275C
:103C9000F1FE03C089E50E94A127F2FE03C08AE578
:103CA0000E94A127002379F000FF03C082E50E9453
:103CB000A12701FF03C088E40E94A12702FF03C0DF
:103CC00083E50E94A12780912601882321F081505D
:103CD0008093260118C080911A018C7711F08DE134
:103CE00001C089E08093260180912501811103C0E4
:103CF00081E0809325018EEB92E00E94F322CE01B9
:103D000001960E94BD2700912501002321F001505A
:103D10000093250142C080911A018C7711F083E154
:103D200001C089E08093250189EB92E00E94F32293
:103D3000809121010E94CD228CE20E94A1278091D6
:103D400022010E94CD228CE20E94A12780912301B2
:103D50000E94CD228091B00087FF05C02D9B02C03C
:103D600002E001C001E0439B03C040E4F42E03C025
:103D7000002399F0F12C85EB92E00E94F3220023BE
:103D800039F0013011F483E501C083E40E94A127DA
:103D9000FF2019F086E40E94A1278EE30E94A1274C
:103DA0000E94D62781E00E941211812F887E09F49B
:103DB00067C080911A01982F937009F050C08872E3
:103DC000A1F080911C01807C81F40E944F1982E057
:103DD00080931E0180911A01803239F417FDF2C1DF
:103DE00080911C01806880931C0180911A018111CF
:103DF00003C091E090931C0116FF07C085FD05C02C
:103E000090911C01906490931C0113FF05C0807E6B
:103E100019F480E180931A0115FF21C083EA92E032
:103E20000E94F3228FE492E00E94F3220E94342940
:103E300080911C0187FD0EC090911A01903439F4D5
:103E400083FFBCC1837E826080931C01B7C1903820
:103E500009F0B4C180911C01806280931C0117FF9E
:103E60000CC080911A01813029F480911C01856079
:103E700080931C0180E880931A0188EE0E94121141
:103E800011FF44C0812F8876F1F580911A018034AA
:103E900071F480911C0185FD0AC084FF03C010925B
:103EA0001A0105C082FF03C0886080931C018091C5
:103EB0001A01882381F084FF26C090911C0190FF95
:103EC00022C0803141F480912401882321F0886050
:103ED0008093240118C010921E010E948623892B12
:103EE00071F080911C0186FD0AC010921C0188E0CF
:103EF00080931A010E94AD110E94511C04C01092BF
:103F00001C0110921A0182E00E94121112FF41C09E
:103F100080911A01807D90911C018823D9F08091B5
:103F20001D01811117C097FD15C00E944F19809186
:103F3000FB018093FA010E94A72380911E0181FF5B
:103F400005C090911C01916090931C01897F809322
:103F50001E011CC097FF0AC010921E010E949623EA
:103F60000E94DA190E943D020E94022380911C01E6
:103F700085FF08C08F77816080931C0180E4809367
:103F80001A0104C010921C0110921A0184E00E94D0
:103F9000121190914F05992309F4ABC08FB7F89493
:103FA00010924F058FBF4091210190FD02C0842FD8
:103FB00001C084E691FD865F92FD8A5093FD8F5F7C
:103FC00094FD8150893C08F088EC8A3008F48AE03E
:103FD0003091220195FD02C0232F01C024E696FDF9
:103FE00022E397FD29E1481303C0231709F481C098
:103FF0008093210120932201109225011091FB0151
:1040000030901C0589E9D82E96E7E92E26E9F22E94
:104010000EE732E3432E131509F457C0812E912C7D
:10402000489CC001499C900D1124FC01E450FE4FB6
:104030005F01CF010E941323562E672E782EC92EC2
:104040002D2D3E2D4F2D502F0E94BB3818164CF4AD
:104050002D2D3E2D4F2D502F6D2D7E2D8F2D902FE0
:1040600008C0252D362D472D5C2D652D762D872DED
:104070009C2D0E94FB38F501668B778B808F918F8A
:10408000489CC001499C900D11249C0124503E4F36
:104090007901F90182A093A0A4A0B5A0A501940183
:1040A00066897789808D918D0E94BB3818162CF413
:1040B000F701868A978AA08EB18E1F5F103109F4AE
:1040C00010E0D52C73010C2DA6CF8D2D9E2DAF2D7C
:1040D000B02F80931A0690931B06A0931C06B093F2
:1040E0001D060E944F198091FB018093FA010E94E6
:1040F000A72310915005112309F459C08FB7F894E4
:10410000109250058FBF9091230110FD02C0892F9E
:1041100001C084E611FD865F12FD8A5013FD8F5F9A
:1041200014FD8150893C08F088EC8A3008F48AE05C
:104130009817D1F08093230180911A0181110DC04D
:1041400040918B0150918C0160918D0170918E0195
:10415000809189010E94691C05C080911E018860C0
:1041600080931E011092250180911A0115FF0DC048
:10417000803159F490912401911102C092E003C062
:1041800090FF03C0946090932401107C81F08823F9
:1041900011F0887361F01091880116FF02C01F7B37
:1041A00001C01064812F0E94E60210938801809163
:1041B0001A018C7F49F00E94AD1106C080E4809303
:1041C0001A0148CE80E218CEA4960FB6F894DEBF4E
:1041D0000FBECDBFDF91CF911F910F91FF90EF9058
:1041E000DF90CF90BF90AF909F908F907F906F9017
:1041F0005F904F903F900895CF92DF92EF92FF92A1
:104200001F93CF93DF930E94BA1C80911C018823D7
:1042100009F4FEC00E948623009771F4C0918901C1
:1042200080918801C82BC0908B01D0908C01E090C8
:104230008D01F0908E010EC0FC01C189C073439BBB
:1042400002C020E401C020E0C22BFC01C6A4D7A418
:10425000E0A8F1A88091700181FF03C080E20E9474
:10426000FA10DC2FD07311E0C07C80911C018823F0
:1042700009F4CEC090911B019111CAC080FFC5C046
:1042800090911A01292F207C09F474C082FD12C07C
:104290001092240140E050E0BA0180E00E94691CC5
:1042A00080E00E94E60280911C018D7F84608093F3
:1042B0001C01ABC09038E1F483EA92E00E94F32243
:1042C0008CE092E00E94F3220E94342940E050E00A
:1042D000BA0180E00E94691C80E00E94E6020E9410
:1042E000A41980911B01811193C00E94BA1CF9CFBF
:1042F000903419F48F7D80931C0180911C0183FF01
:1043000084C0909189019923C1F081FD16C08091EC
:10431000700181FF06C080911E01886080931E019C
:104320000CC0B701A6018D2F0E94691C41E060E01E
:1043300070E080E890E40E94F42480918801882352
:1043400071F080911C0181FD0AC08C2F0E94E60251
:1043500041E060E070E080E89FE30E94F4248091F7
:104360001C0181FD52C0806180931C0182E00E948B
:104370001C114BC0809124018823C9F181FF0DC01D
:10438000809189018823B1F040E050E0BA0180E0DB
:104390000E94691C1093240138C08C70B1F1809187
:1043A000890181110AC08091240183FF03C082E04A
:1043B0000E941C111092240128C083EA92E00E94FE
:1043C000F32285E192E00E94F3220E943429809139
:1043D000700181FF06C080911E01886080931E01DC
:1043E000E2CFB701A6018D2F0E94691CDCCF80911E
:1043F0001E0183FF0AC0B701A6018D2F0E94691C10
:1044000080911E01877F80931E010E94BA1C2DCFD0
:10441000DF91CF911F91FF90EF90DF90CF900895A3
:104420000E94911C0E94FC2080911B01811108C0F8
:104430000E948623892BB1F780911A01883091F36D
:1044400008958F929F92AF92BF92CF92DF92EF9298
:10445000FF920F931F93CF93DF93CDB7DEB72D97C6
:104460000FB6F894DEBF0FBECDBF6B017C01042FE9
:1044700020E030E0A9010E94993687FF07C08DE255
:104480000E94A127F7FAF094F7F8F094102F123059
:1044900060F020E030E048EC52E4C701B6010E9431
:1044A000FB386B017C011250F2CF00FF0AC020E004
:1044B00030E040E251E4C701B6010E94FB386B01D5
:1044C0007C0120E030E040E05FE3C701B6010E94DC
:1044D000A4350E94153710E03AE0832E912CA12CD0
:1044E000B12C611571058105910591F0EE24E394DD
:1044F000F12CEC0EFD1EE10EF11CA50194010E94B1
:10450000243A605DF7016083B901CA011F5FE9CFFA
:1045100080E3101748F4E1E0F0E0EC0FFD1FE10F3D
:10452000F11D80831F5FF5CF101313C0FE01E10F53
:10453000F11D80E381831F5F0CC0101303C08EE266
:104540000E94A127FE01E10FF11D80810E94A12799
:1045500011501111F2CF2D960FB6F894DEBF0FBE99
:10456000CDBFDF91CF911F910F91FF90EF90DF9022
:10457000CF90BF90AF909F908F9008952091700141
:1045800020FF08C02BE832E441E25DE30E94FB38E3
:1045900044E001C043E00C942122CF93DF938436A2
:1045A00030F06AE00E94043AC0E3C90F03C0C0E0E3
:1045B0008A3030F06AE00E94043AD0E3D90F01C09B
:1045C000D0E0805D0E94A127DD2319F08D2F0E948D
:1045D000A127CC2329F08C2FDF91CF910C94A12718
:1045E000DF91CF910895CF93DF93FC018491EF0188
:1045F0002196882321F00E94A127FE01F7CFDF91A9
:10460000CF910895E1E0F1E0A2E0B6E0419151914F
:10461000619171914D935D936D937D9381E0ED3048
:10462000F807A1F70895BF92CF92DF92EF92FF9221
:104630000F931F93CF93DF937C01FC0102A513A579
:10464000D4A5C5A5818980FF18C06091220170E0C2
:1046500080E090E00E944D372AE037ED43E25CE3D2
:104660000E94FB389B01AC01B8018D2F9C2F0E944A
:10467000FB388B01D82FC92F2DC082FD17C0609148
:10468000210170E080E090E00E944D372AE037ED94
:1046900043E25CE30E94FB389B01AC01B8018D2F23
:1046A0009C2F0E94FB388B01D82FC92FF701B6A091
:1046B000C7A0D0A4F1A42B2D3C2D4D2D5F2DB8010A
:1046C0008D2F9C2F0E94BB38181624F40B2D1C2D07
:1046D000DD2DCF2D20E030E040E85FE3B8018D2FE5
:1046E0009C2F0E94BB38181624F000E010E0D0E8A0
:1046F000CFE3B8018D2F9C2FDF91CF911F910F91A8
:10470000FF90EF90DF90CF90BF9008958091FB01D4
:1047100090911C05981739F022E3829FC001112463
:1047200084509E4F089580E090E008958CE1E2E08F
:10473000F6E0DF011D928A95E9F71092FB011092D5
:104740001C0581E080931E061092FA0108952F92B5
:104750003F924F925F926F927F928F929F92AF9211
:10476000BF92CF92DF92EF92FF920F931F93CF935E
:10477000DF93C0911C05C11101C0C0E1C150D091AF
:10478000FA01DC1709F41DC1EC2EF12C22E3C29FC3
:104790008001112404501E4FF801A688B788C08CF0
:1047A000D18C628D738D848D958D9B01AC010E949F
:1047B000A435F801268D378D40A151A10E94FB3808
:1047C0004B018C019B01AC01B501C6010E949936D9
:1047D00087FD02C05401680182E38E9DF0018F9D28
:1047E000F00D1124E450FE4FC501D601828B938B4E
:1047F000A48BB58BC11101C0C0E1C150DC1761F0C1
:1048000022E32E9DC0012F9D900D11249C01245068
:104810003E4F7901D2E333C08091FB01D81360C0D1
:104820000E944F195DC0AC2EB12CDA9DC001DB9DFA
:10483000900D1124FC01E450FE4F6F01C11101C025
:10484000C0E1C1508091FB018C1302C00E944F193E
:10485000DA9D8001DB9D100D112404501E4FF801DC
:1048600086889788A08CB18CA50194016289738990
:10487000848995890E949936811106C076018091BC
:10488000FA01C813D0CF2CC0F801628D738D848DCE
:10489000958D9B01AC010E94A435F801268D378DC2
:1048A00040A151A10E94FB38F70122893389448934
:1048B00055890E94A4352B013C019B01AC01C50127
:1048C000B4010E94BB38F80118162CF4428A538AAE
:1048D000648A758AD3CF828A938AA48AB58ACECF16
:1048E000D091FA01F2E3DF9F8001112404501E4FA2
:1048F000C1E0CD0FC03109F4C0E020901C0582E377
:10490000382EC21509F45BC0CC2ED12C3C9CC001C2
:104910003D9C900D11249C0124503E4F7901F801DB
:104920004288538864887588F90182889388A488AE
:10493000B588A5019401C301B2010E94993687FF91
:1049400024C0F801628D738D848D958D9B01AC011F
:104950000E94A435F801268D378D40A151A10E94F7
:10496000FB38A30192010E94A4352B013C019B015D
:10497000AC01C501B4010E94BB38181634F4F7012C
:10498000428A538A648A758ADC2F3C9CF0013D9CE4
:10499000F00D1124E450FE4F26893789408D518D4A
:1049A00062897389848995890E949936811101C031
:1049B000DC2FCF5FC03109F4C0E08701A2CFD093D4
:1049C000FA01DF91CF911F910F91FF90EF90DF904F
:1049D000CF90BF90AF909F908F907F906F905F909F
:1049E0004F903F902F9008951F93CF93DF93142FF4
:1049F00020E030E040EA51E40E94FB380E94823619
:104A00000E941C37EB012097D1F080911B0181118E
:104A100016C0111103C00E94FC2006C00E94BA1CDF
:104A200080911C0181FD0BC02FEF80E792E02150A7
:104A300080409040E1F700C000002197E4CFDF9173
:104A4000CF911F91089580914D0584FD1CC080E198
:104A50000E941C110E940426439890911A01892FEC
:104A60008C7221F480911E01867069F0943031F4CB
:104A700080914E05811105C086E001C083E00E944F
:104A80000C110C94A41908954F925F926F927F922B
:104A90008F929F92AF92BF92CF92DF92EF92FF924E
:104AA0006B017C016091230170E080E090E00E9446
:104AB0004D372AE037ED43E25CE30E94FB38A70163
:104AC00096010E94FB386B017C0180906C019090F4
:104AD0006D01A0906E01B0906F0140906801509000
:104AE000690160906A0170906B01A3019201C50198
:104AF000B4010E94BB3887FF08C0A3019201C7011F
:104B0000B6010E94BB3887FD0AC04092270150922F
:104B100028016092290170922A016FEF47C0A50118
:104B20009401C701B6010E9499361816ECF020E0F6
:104B300030E0A901C701B6010E94993681110AC06F
:104B400010922701109228011092290110922A0137
:104B500060E02CC08092270190922801A092290148
:104B6000B0922A0161E022C0C0922701D0922801B0
:104B7000E0922901F0922A01A5019401C701B60132
:104B80000E94A33520910D0730910E0740910F0729
:104B9000509110070E94FB380E94883720E030E0D7
:104BA00040E85FE30E94A4350E941C3780917001A9
:104BB00081FD1CC0A5019401C301B2010E94A3356F
:104BC0009B01AC0160E070E080E891E40E94A336B4
:104BD000A70196010E94FB3820E030E040E751E455
:104BE0000E94A4350E9488370E941C37862FFF90B0
:104BF000EF90DF90CF90BF90AF909F908F907F907D
:104C00006F905F904F9008958091700181FF06C072
:104C10008091B0008F778093B00008958091B000AC
:104C200080688093B0008FE08093B30008958093F4
:104C3000B300811109C08091700181FF0C9404269A
:104C40008091B0008F7703C08091B000806880931E
:104C5000B0000895239A83E08093B00087E08093AA
:104C6000B100259A20916C0130916D0140916E0147
:104C700050916F01609168017091690180916A01A2
:104C800090916B010E94A3359B01AC0160E070E044
:104C90008EE793E40E94A33660930D0770930E078E
:104CA00080930F07909310070C9404266AE080E02D
:104CB00090E00E94870245E550E06BE271E081E000
:104CC00090E00C94A9020F931F93CF93C82F8B01F0
:104CD0000E9410222DE0C29FC00111244CE050E040
:104CE000B8019E5FCF911F910F910C94A9021F9361
:104CF000CF93DF93182FEB018DE0189FB0011124A3
:104D00007E5F4CE050E0CE010E944302892B59F4B3
:104D10008CE0FE0111928A95E9F7BE01812F0E9475
:104D2000632680E001C081E0DF91CF911F9108955B
:104D3000EF92FF920F931F93CF93DF93CDB7DEB720
:104D40002C970FB6F894DEBF0FBECDBF182F80FF93
:104D50000BC085E5E1E2F3E0ABE2B1E005900D9236
:104D60008A95E1F70E94562611FF10C0CE010196E8
:104D70007C018CE0F70111928A95E9F700E0B70118
:104D8000802F0E9463260F5F0830C9F712FF14C0FE
:104D900060E080E093E00E94870260E081E093E0C1
:104DA0000E94870260E081E593E00E94870260E054
:104DB00082E593E00E94870213FF0AC060E08EEA5A
:104DC00093E00E94870260E08FEA93E00E948702EE
:104DD0002C960FB6F894DEBF0FBECDBFDF91CF91FA
:104DE0001F910F91FF90EF9008951F920F920FB6B1
:104DF0000F9211242F933F934F935F936F937F9361
:104E00008F939F93AF93BF93EF93FF93E091C6006F
:104E1000E13271F028F4E83179F40E94232556C07C
:104E2000EF3321F0EE3741F482E003C081E001C0AE
:104E300088E00E941C114AC0E7FF37C08E2F90E027
:104E4000FC01E458F109ED31F10508F03FC0E659E5
:104E5000FF4F0C94463A80E2ECCF80911A0185FF17
:104E600035C080E4E6CF81E00DC082E00BC084E075
:104E700009C088E007C080E105C080E203C080E48B
:104E800001C080E80E94031121C081E00BC082E0D4
:104E900009C084E007C088E005C080E103C080E26B
:104EA00001C080E40E94FA1011C0A091A10681E027
:104EB0008A0F813809F480E09091A006891731F0BB
:104EC000B0E0A15EB94FEC938093A106FF91EF9102
:104ED000BF91AF919F918F917F916F915F914F9112
:104EE0003F912F910F900FBE0F901F9018951F921A
:104EF0000F920FB60F9211248F939F93EF93FF930E
:104F000080910C07E82FF0E0ED55F94F90819093D8
:104F1000C6008F5F893609F480E080930C0790917A
:104F2000A206891305C08091C1008F7D8093C100C6
:104F3000FF91EF919F918F910F900FBE0F901F9057
:104F40001895E091A20691E09E0F993631F490E019
:104F500004C020914D0524FD0FC020910C07291796
:104F6000C1F3F0E0ED55F94F80839093A206809154
:104F7000C10080628093C10008950F931F93CF9367
:104F80008C01C0E0F80161917191819191918F0143
:104F90000E94BE22C23019F08CE20E94A127CF5F8E
:104FA000C33081F7CF911F910F91089581E193E074
:104FB0000C94F322CF93C82F8AE193E00E94F3224E
:104FC0008C2F0E94CD22CF910C94D627811104C042
:104FD00089EA92E00C94F3220C94DA27CF92DF92C4
:104FE000EF92FF92CF93DF93D82F6A017B01C22FFC
:104FF00084E20E94A1278D2F0E94CD228DE30E9482
:10500000A1274C2FC701B6010E942122DF91CF9129
:10501000FF90EF90DF90CF900C94D627CF93DF9343
:10502000D82FC62F84E20E94A1278D2F0E94CD2267
:105030008DE30E94A1278C2F0E94CD22DF91CF917A
:105040000C94D627EF92FF920F931F93CF93DF9389
:1050500060915B0170E080E00E940E2860915E012B
:1050600070E081E00E940E2860915C0170E082E0B7
:105070000E940E2860915D0170E083E00E940E287E
:105080006091700162FB662760F970E084E00E9425
:105090000E286091700166FB662760F970E085E07C
:1050A0000E940E2880917001082E000C990B692F28
:1050B000661F6627661F70E086E00E940E286091DA
:1050C0005F0170E08AE00E940E28409160015091DB
:1050D0006101609162017091630123E08BE00E94A5
:1050E000EE274091640150916501609166017091D5
:1050F000670123E08CE00E94EE27609170016170EF
:1051000070E08DE00E940E286091700165FB6627BB
:1051100060F970E084E10E940E286091700163FBE9
:10512000662760F970E085E10E940E2860917001A9
:105130006295617070E086E10E940E2860917101B5
:1051400070E087E10E940E28409172015091730136
:10515000609174017091750123E088E10E94EE274F
:1051600040917601509177016091780170917901B9
:1051700023E089E10E94EE2760917A0170917B0122
:105180008AE10E940E2840917C0150917D0160913E
:105190007E0170917F0123E08BE10E94EE27409118
:1051A00068015091690160916A0170916B0120E082
:1051B0008EE10E94EE2740916C0150916D0160914B
:1051C0006E0170916F0120E08FE10E94EE276091E7
:1051D00070016695617070E080E20E940E28D4E64E
:1051E000F12C0BE211E083E0E82EED0ECD2F82E0F2
:1051F000F81691F0E3E0FE16E9F0F1E0FF1631F069
:10520000F80140815181628173811AC0F80144859F
:1052100055856685778514C020E030E041E655E489
:10522000F801608D718D828D938D0E94A336AB0144
:10523000BC0106C0F80144A155A166A177A1705830
:1052400023E08C2F0E94EE270C5F1F4FCF5FEC12E4
:10525000CECFD65FF394DC3821F6DF91CF911F914A
:105260000F91FF90EF9008958DE50E94A1270C9477
:10527000D6278F929F92AF92BF92CF92DF92EF92FA
:10528000FF920F931F93CF93DF937C016B01DC019F
:10529000CC91D0E0FE01EF5EF84F80818D3229F491
:1052A000EF012296818101E009C08B3219F0CE5EB8
:1052B000D84F03C0EF012296818100E0912CF0E0ED
:1052C00010E020E030E0A9015E01E0EDE80FEA30F7
:1052D000D0F4FF5FF93098F491101150A5E0B0E0E0
:1052E0000E944C3ADC01CB01880F991FAA1FBB1FFB
:1052F0009C01AD012E0F311D411D511D0AC09110A1
:1053000008C01F5F06C0EE3F41F4911006C099240B
:1053100093942196D5018C91D7CFFF2309F44FC0E8
:10532000CA01B9010E944B374B015C0120E030E01B
:10533000A9010E949936882349F11F3F64F42AE0AD
:1053400037ED43E25CE3C501B4010E94FB384B0139
:105350005C011E5FF2CF1F3F59F42DEC3CEC4CEC8E
:105360005DE3C501B4010E94FB384B015C010EC036
:10537000112361F020E030E040E251E4C501B401C6
:105380000E94FB384B015C011150F2CF002351F019
:10539000B7FAB094B7F8B094F60180829182A282F5
:1053A000B38206C0D6018D929D92AD92BC921397A6
:1053B000C151D740C150F701C08381E001C080E0F6
:1053C000DF91CF911F910F91FF90EF90DF90CF90E1
:1053D000BF90AF909F908F9008952F923F924F92E1
:1053E0005F926F927F928F929F92AF92BF92CF9275
:1053F000DF92EF92FF920F931F93CF93DF93CDB77E
:10540000DEB7A1970FB6F894DEBF0FBECDBF909167
:105410001B01911187C18D8F9E01235F3F4F3A8FF2
:10542000298F89E0D9011D928A95E9F786E08D8B55
:105430009BE2A92E91E0B92EFE0176964F0100E085
:1054400010E0C12CD12C7601FD8D6F2E712C802F98
:10545000002321F0013021F090E103C094E001C06D
:1054600098E0D4019D934D01F30102C0F595E795B5
:105470008A95E2F7E0FF1BC020E030E040EC5FEBF4
:10548000D50194966D917D918D919C9197970E94F5
:10549000FB38362E472E582E292EA70196010E9442
:1054A000993687FD04C0C32CD42CE52CF22C0F5F59
:1054B0001F4FB4E0AB0EB11C0330110541F6209034
:1054C000760130907701409078015090790184E026
:1054D000A82EBB24B39461E071E0CE0101960E9436
:1054E000251180917101E82FF0E0FF8FEE8FFE0112
:1054F000319621E031E03C8F2B8F39A328A3DE01C8
:1055000056964D0180E090E000E010E0B701A60162
:1055100070589301082E02C0359527950A94E2F73A
:1055200020FF23C00F5FA8A1B9A11D921D921D925B
:105530001C9213972E8D3F8D082E02C0359527950E
:105540000A94E2F720FF03C0BB2019F007C0BB207C
:1055500029F0C082D182E282F38204C04083518369
:1055600062837383D4012C91122B0196BFEF8B1AA7
:105570009B0A349628A139A12C5F3F4F39A328A359
:105580008330910531F6602F70E080E090E00E945A
:105590004B370E949A399B01AC0110932001C20144
:1055A000B1010E94FB386D877E878F87988BBE0183
:1055B000635F7F4FCE0101960E94563234E03093F4
:1055C0001E010E94AD110E94511CBB20E9F00E94F7
:1055D0002802FE01769620E030E090E06191462FAF
:1055E000412359F0AC01022E02C0559547950A940B
:1055F000E2F740FF02C0609516232F5F3F4F233034
:10560000310561F7109320010E94AD1180914D0585
:10561000847339F110914D0514FF03C086E00E9498
:105620000C1115FF03C087E00E940C11B11007C0D8
:105630000E9428029D8D892339F088E003C012FF63
:1056400003C089E00E940C1180914E05882329F047
:105650000E9423250E94FC2065C084E00E94121154
:1056600004C0812F8C7109F0B0CF0E94DA1900912B
:105670007A0110917B010115110549F0AFE9BFE0F6
:105680001197F1F700C0000001501109F4CFB1E00B
:10569000BB26C9F020E030E040EA50E460917C0194
:1056A00070917D0180917E0190917F010E94FB3875
:1056B0006B017C0120907201309073014090740165
:1056C0005090750110C0C0907C01D0907D01E09099
:1056D0007E01F0907F01209076013090770140901C
:1056E000780150907901AA94A110F5CEC301002E43
:1056F00002C0959587950A94E2F780FF06C0EB8D6E
:10570000FC8D10821182128213820F5F1F4F2B8D2E
:105710003C8D2C5F3F4F3C8F2B8F0330110531F7B1
:1057200010921E01A1960FB6F894DEBF0FBECDBF3A
:10573000DF91CF911F910F91FF90EF90DF90CF906D
:10574000BF90AF909F908F907F906F905F904F90A1
:105750003F902F900895CF93DF93CDB7DEB7619739
:105760000FB6F894DEBF0FBECDBF8091C00082603F
:105770008093C0001092C50080E18093C4008091A6
:10578000C10088698093C10080E090E00E94F1012F
:105790008A3009F03BC545E550E061E070E08BE2FE
:1057A00091E00E944302892B09F430C58AB18C61D3
:1057B0008AB9209A8AB1806E8AB9809181008F7EE1
:1057C0008093810080918100886080938100809126
:1057D00080008C7F80938000809180008F70809308
:1057E000800080916E00887F80936E0014BC15BC91
:1057F00080916E00816080936E0087B1887F87B949
:1058000088B1876088B980916C00876080936C0054
:10581000809168008260809368008CE0E1E0F1E0B4
:10582000DF011D928A95E9F7789410921A01809110
:10583000700184FF03C081E080931A01AAE12A2E3F
:10584000A1E03A2E9924939480911A0191E1F101FB
:1058500011929A95E9F780931A0184E680932101C9
:1058600080932201809323018CE0ADE0B1E01D9292
:105870008A95E9F71092190110924D0510924E0584
:1058800010924F05109250058091A1068093A006BA
:1058900080E4E0E8F1E011928A95E9F764EA71E0CA
:1058A00080E00E947726811103C087E00E94DA27FA
:1058B0000E942A263B9A43980E94DA013D98459A15
:1058C00080E00E94991C0E9496230E94DA190E948F
:1058D00002230E943D028AE591E00E94F32280911A
:1058E000700183FF10C00E942802882361F090920B
:1058F0001A0183EA92E00E94F32282E492E00E947D
:10590000F3220E94342980911A01817899F083EA68
:1059100092E00E94F3228DE792E00E94F3220E941F
:10592000342990921A0110E000E0E2E0EE2EF4E05B
:105930008F2E29C010921A010E94CC10F4CFE92FAB
:10594000F0E0E15EF94F80819F5F913809F490E0CB
:105950009093A0068F3FE9F08A3021F50E94FC2049
:1059600080911B01811170CFE12FF0E0EF5EF84FC5
:105970001082F02FF170FF2E00FF18C08BE00E9404
:10598000DA2710E000E09091A0068091A10698131C
:10599000D6CF0E94911C0E94FC2080911B0188237D
:1059A00091F352CF8D3009F00BC4D8CF80911107FD
:1059B000882309F402C4843209F0F7C3998A8091DC
:1059C0001207833409F134F4882361F0843209F03A
:1059D00006C11AC08A3459F08835B1F0873409F00D
:1059E000FEC012C082EC91E00E94F322DCC38091E1
:1059F0001A018F7D09F0C7C3809113078D3309F019
:105A0000CAC30E94F202C2C3909113079111C3C38B
:105A1000833409F4B2C01CF4843239F0C4C387342F
:105A200069F0883509F4C9C0BEC380911A01887134
:105A3000F82E09F0A8C30E942228B5C38CEB91E090
:105A40000E94F322809180018C3838F088EB91E03D
:105A50000E94F322809180018A580E94CD2289EA17
:105A600091E00E94F322809186018A5C0E94CD22FF
:105A700089EA91E00E94F322809184018F5E0E9466
:105A8000CD2289EA91E00E94F3228091820125E1F2
:105A9000281B822F0E94CD2289EA91E00E94F322E6
:105AA00080918301865A0E94CD2289EA91E00E946A
:105AB000F322809181019EE5981B892F0E94CD22BF
:105AC00080918701882399F08CEA91E00E94F3226B
:105AD00080918701833029F08E3139F0823039F49A
